:020000040800F2
:10000000988E0024A503000835BA0008B7A8000898
:1000100031BA0008371000081DD2000800000000A7
:10002000000000000000000000000000E5020008E1
:10003000D92000080000000041030008E1BF0008CB
:10004000BF030008BF030008BF030008BF03000888
:10005000BF030008BF030008BF030008BF03000878
:10006000BF030008BF030008BF030008E918000829
:10007000F91800080919000819190008BF03000839
:10008000BF030008BF030008BF0300089D2200084B
:100090000D230008BF030008BF030008BF030008CA
:1000A000BF030008BF030008BF030008BF03000828
:1000B000A9C10008BF030008BF030008BF03000870
:1000C000BF030008BF030008BF030008BF03000808
:1000D00079BE00080DD20008BF030008BF03000866
:1000E000BF030008BF03000800000000BF030008B2
:1000F000BF030008BF030008BF030008BF030008D8
:10010000BF030008BF030008BF030008BF030008C7
:10011000BF030008BF030008BF030008BF030008B7
:10012000BF030008BF030008BF030008BF030008A7
:10013000BF030008BF030008BF030008BF03000897
:1001400000000000000000000000000000000000AF
:10015000BF030008BF030008BF030008BF03000877
:10016000BF030008BF030008BF030008BF03000867
:10017000BF030008BF030008BF0300080000000021
:10018000BF030008BF030008BF030008BF03000847
:10019000BF030008BF030008BF030008BF03000837
:1001A000BF030008BF030008BF03000800000000F1
:1001B000BF030008BF030008BF030008BF03000817
:1001C000BF030008BF03000800000000000000009B
:1001D0000000000000000000BF0300080000000055
:1001E000000000000000000000000000000000000F
:1001F0000000000000000000BF030008BF0300086B
:10020000BF030008BF03000800000000BF03000890
:10021000BF030008BF030008BF030008BF030008B6
:10022000BF03000800000000BF030008000000003A
:10023000BF030008BF03000800000000BF03000860
:10024000BF030008BF030008BF030008BF03000886
:10025000BF030008BF030008BF030008BF03000876
:10026000BF030008BF030008BF030008BF03000866
:10027000BF030008BF030008BF0300080000000020
:10028000BF030008BF030008BF030008BF03000846
:1002900000000000BF030008BF03000800000000CA
:1002A00000000000BF030008BF030008BF030008F0
:1002B000BF030008BF030008BF0300081D23000898
:1002C000BF030008BF030008BF030008DFF810D019
:1002D00000F062F90048004729E90008AFF3008008
:1002E000988E00242C4B19680868B0E8F04F80F312
:1002F0000988BFF36F8F4FF0000080F311887047BB
:100300000000000008480068006880F308884FF08B
:10031000000080F3148862B661B6BFF34F8FBFF35D
:100320006F8F00DF00BF00BF08ED00E0DFF80C00BA
:10033000016841F470010160704700BF88ED00E082
:10034000EFF30980BFF36F8F134B1A681EF0100F85
:1003500008BF20ED108A20E9F04F106009B44FF07B
:10036000500080F31188BFF34F8FBFF36F8F0FF0F2
:100370002FF94FF0000080F3118809BC1968086854
:10038000B0E8F04F1EF0100F08BFB0EC108A80F3F9
:100390000988BFF36F8F70477C000024EFF305805E
:1003A000704700000648804706480047FEE7FEE722
:1003B000FEE7FEE7FEE7FEE7FEE7FEE7FEE7FEE715
:1003C000C9C00008CD0200082DE9F05F05460020F5
:1003D00092469B4688460646814640241BE02846B6
:1003E00041464746224600F08FF853465A46C01A07
:1003F000914110D311461846224600F076F82D1A86
:1004000067EB01084F4622460120002100F06DF8FD
:1004100017EB00094E41201EA4F10104DFDC484621
:1004200031462A464346BDE8F09F40EA01039B0758
:1004300003D009E008C9121F08C0042AFAD203E059
:1004400011F8013B00F8013B521EF9D27047D2B2BD
:1004500001E000F8012B491EFBD270470022F6E7AD
:1004600010B513460A4604461946FFF7F0FF20462A
:1004700010BD10B5044604E00B7800F8013B03B151
:10048000491C521EF8D2204610BD000070B500B9BC
:100490001068002512E00B4602E0A64203D05B1C68
:1004A0001C78002CF9D1E3B22B4305D02CB125B137
:1004B000002100F8011B04E00546401C0678002ED0
:1004C000E9D11060284670BD004ADFE7DC01002456
:1004D00070B506460DF09CF8046805460A22002116
:1004E000304600F021F82C6070BD202A04DB203A51
:1004F00000FA02F1002070479140C2F1200320FA77
:1005000003F3194390407047202A04DB203A21FA74
:1005100002F00021704721FA02F3D040C2F120021C
:1005200091400843194670472DE9F04791460F4620
:1005300080460446002614F8015B2DB100F03EF819
:100540000068405DC007F6D12B2D02D02D2D18D0AC
:10055000641E4A463946204600F034F827B139680F
:10056000A14201D1C7F8008071054FF002040BD5FC
:100570004042002803DD0DF04BF80460A007BDE801
:10058000F08746F48066E4E70028F8DA0DF040F8DA
:1005900004606FF00040F2E7064C074D06E0E068AB
:1005A00040F0010394E8070098471034AC42F6D3BA
:1005B000FFF790FE54340108743401080048704776
:1005C000103401082DE9F05F8246007800271546B7
:1005D0008B460AF10104B946302801D09DB113E0E1
:1005E00014F8010B0127782803D0582801D045B111
:1005F0000AE00DB1102D07D10027102514F8010BCA
:1006000002E0082500E00A250026B0460EE005FBC2
:10061000080005FB06F1012701EB10461FFA80F8E0
:10062000B6F5803F00D3B94614F8010B294600F017
:1006300018F80028EBDABBF1000F05D00FB1641EEB
:1006400000E05446CBF80040B9F1000F06D00CF0A2
:10065000DFFF02210160C81EBDE8F09F48EA0640A6
:10066000FAE73A2800D2303820F02002412A01D39C
:10067000A2F13700884201D34FF0FF30704770B5C8
:100680008C1810F8015B15F0070301D110F8013B3D
:100690002A1106D110F8012B03E010F8016B01F8C4
:1006A000016B5B1EF9D12B0705D40023521E0DD41C
:1006B00001F8013BFAE710F8013BCB1A921C03E06A
:1006C00013F8015B01F8015B521EF9D5A142D8D3A2
:1006D000002070BD70B5044643492068884203D0AD
:1006E00042492068884208D14148006800F44030FF
:1006F00008B1012009E0002007E03E48006800F44E
:10070000403008B1012000E00020B8B107F0E8FD5A
:1007100005466068B0F5803F06D0B0F5003F04D0D4
:10072000B0F5403F08D105E000BF6068000CB5FBA4
:10073000F0F502E0AD0800E000BF2BE04FF4002030
:10074000002106F0CDF905466068C0F31101F9B942
:1007500080140C281CD2DFE800F01B060708090AE9
:100760000B111315171900BF00BF00BF00BF00BF5A
:100770006068800C4000B5FBF0F50AE02D0908E048
:100780006D0906E0AD0904E0ED0902E02D0A00E084
:1007900000BF00BF6D081848854206D820688068F1
:1007A00020F44070216888601DE01448854208D814
:1007B0002068806820F4407040F480702168886070
:1007C00011E00F48854208D82068806820F4407006
:1007D00040F400702168886005E02068806840F47B
:1007E00040702168886070BD0020024000210240F6
:1007F0000823024008630258105E5F0020BCBE0060
:1008000040787D0170B50546AC6B206E00F050005D
:1008100098BB206E40F4007020662068006800F0ED
:100820000800A8B120680AF05CFD10B32068C06819
:1008300000F40050E8B9206E20F480702066206E2D
:1008400000F48050A8B9206E40F00100206610E04E
:100850002068C06800F0030058B9206E20F4807052
:100860002066206E00F4805018B9206E40F0010020
:100870002066204602F0A8FB0CE0FFE7206E00F0A7
:10088000100018B1204602F0A1FB03E0A06DC16C7E
:100890002846884770BD70B50546AC6B206E40F0A9
:1008A00040002066606E40F004006066204602F062
:1008B0008DFB70BD70B50446A56B284602F085FB24
:1008C00070BD000070B5044620680AF0ECFC0646D6
:1008D00020680AF0EDFC98B396BB2068806800F0B1
:1008E0000D0001280AD1206881681A4A1140891C2C
:1008F000816000BF03202168086009E0206E40F09D
:1009000010002066606E40F001006066012070BD3E
:1009100005F04CFC054614E005F048FC401B02289D
:100920000FD92068806800F0010050B1206E40F0BF
:1009300010002066606E40F0010060660120E6E76E
:1009400005E02068806800F001000028E4D1002064
:10095000DDE70000C0FFFF7F70B5044620680AF0A5
:10096000A7FC002851D1206880682949084048B177
:10097000206E40F010002066606E40F0010060665E
:10098000012070BD20680AF073FC05F00FFC0546DD
:10099000204A2168914203D01F4A2168914201D127
:1009A0001E4900E01E4908460AF06AFC06461A493C
:1009B0002068884201D1174800E0206821688842F9
:1009C00000D00EBB1AE020680AF072FC10B9206853
:1009D0000AF04EFC05F0EAFB401B02280ED9206805
:1009E000006800F0010048B9206E40F01000206659
:1009F000606E40F0010060660120C2E72068006878
:100A000000F001000028DED000BF0020B9E70000A0
:100A10003F000080002002400021024000230240ED
:100A20000063025810B501221146024805F0B8FBD8
:100A300010BD00000008025810B500220121024834
:100A400005F0AEFB10BD00000008025810B50122F1
:100A50000821024805F0A4FB10BD00000008025860
:100A600010B500220821024805F09AFB10BD0000D5
:100A70000008025810B50446FFF7DEFF922000F090
:100A800011FA0622C249122000F0ECF9FFF7CAFF62
:100A9000C0480078002855D0BD484078000200B218
:100AA000BB4909780843BC49088094ED0C0A084604
:100AB000B0F9000000EE900AF8EEE00AB74890EDB9
:100AC000001A60EE810A94ED081A10EE810A84ED96
:100AD000000AAF48C078000200B2AD4989780843E7
:100AE000AD49088094ED0D0A0846B0F9000000EE0B
:100AF000900AF8EEE00AA94890ED001A60EE810A2B
:100B000094ED081A10EE810A84ED010AA04840799C
:100B1000000200B29E49097908439F4908800846AF
:100B2000B0F9000000EE100AB8EEC00A9B48D0ED04
:100B3000000A20EE200AD4ED080A20EE200A84EDF7
:100B4000020A50E092484078000200B290490978C9
:100B50000843914908800846B0F9000000EE100AE9
:100B6000B8EEC00A8D48D0ED000A20EE200AD4ED80
:100B7000080A20EE200A84ED000A8548C0780002A9
:100B800000B2834989780843834908800846B0F950
:100B9000000000EE100AB8EEC00A8048D0ED000A4E
:100BA00020EE200AD4ED080A20EE200A84ED010A86
:100BB00077484079000200B27549097908437649BF
:100BC00008800846B0F9000000EE100AB8EEC00A2E
:100BD0007248D0ED000A20EE200AD4ED080A20EE7B
:100BE000200A84ED020AFFF73BFF08226849002033
:100BF00000F038F9FFF72AFF654800780F284FD139
:100C000064480078F0B36248C078000200B26049DE
:100C1000897808436049088094ED090A0846B0F9CC
:100C2000000000EE900AF8EEE00A5D4890ED001A30
:100C300010EE810A84ED030A55484079000200B2A3
:100C40005349097908435449088094ED0A0A084633
:100C5000B0F9000000EE900AF8EEE00A504890ED7E
:100C6000001A10EE810A84ED040A4948C079000296
:100C700000B24749897908434749088094ED0B0A37
:100C8000084600E00DE0B0F9000000EE900AF8EE32
:100C9000E00A434890ED001A10EE810A84ED050A3F
:100CA00044E03B48C078000200B2394989780843E3
:100CB000394908800846B0F9000000EE100AB8EE85
:100CC000C00A3748D0ED000A20EE200A84ED030A5E
:100CD0002F484079000200B22D49097908432E4976
:100CE00008800846B0F9000000EE100AB8EEC00A0D
:100CF0002B48D0ED000A20EE200A84ED040A244897
:100D0000C079000200B2224989790843224908804B
:100D10000846B0F9000000EE100AB8EEC00A2048FC
:100D2000D0ED000A20EE200A84ED050AFFF784FECC
:100D3000A22000F0B7F802221549222000F092F814
:100D4000FFF770FE12480078C0001149497840EA68
:100D50006110114908800846B0F90000B0F5806FB5
:100D600005DB08460088A0F5006000B208800A484C
:100D7000B0F9000000EE100AF8EEC00AB4EE001A56
:100D8000B3EE070A00EE810A84ED070A10BD0000E9
:100D90006C0000243C000024740000242C0000247B
:100DA0003000002470B504460D462248046000203F
:100DB000214908700CF0A2FE1F49097808431E491A
:100DC00008700CF051FF1C49097808431A49087053
:100DD0001DB11A4800F032F928E09FED190A1748B2
:100DE00080ED090A9FED170A80ED0A0A9FED160AA9
:100DF00080ED0B0A9FED150A80ED0C0A9FED140A99
:100E000080ED0D0A9FED130A80ED0E0A9FED120A88
:100E100080ED0F0A90ED0F0ADFED100A80EE801AC8
:100E200080ED081A9FED0E0A80ED060A0248007850
:100E300070BD00007800002436000024D40800248F
:100E4000F0A032BAB9F3AFBAB1EFBBBA0B6F993EAB
:100E50002A98933D000000007A841D41C3F51C418F
:100E60000000204270B506460C46154646F080004C
:100E700000F018F806E0552000F014F82070641C0B
:100E8000681EC5B2002DF6D170BD70B504460D4682
:100E900044F0800000F006F8552000F003F82870B8
:100EA00070BD000001B582B04FF47A70012301AA31
:100EB00002A900900348006808F0B6FB9DF8040002
:100EC0000EBD00007800002470B505460C4628468B
:100ED000FFF7E8FF2046FFF7E5FF70BDD2ED020AFD
:100EE00092ED021AB6EE000A00EEC10AD2ED030A34
:100EF00092ED031A00EEC10AD0ED000A20EE200A9E
:100F0000D2ED010A92ED021A60EE810A92ED001A0A
:100F1000D2ED031A41EE610A90ED011A00EE810A4A
:100F2000D2ED010A92ED031A60EE810A92ED001AE9
:100F3000D2ED021A41EE210A90ED021A00EE810A6A
:100F4000F0EE000A20EE200A81ED000A92ED010A7F
:100F5000D2ED020A20EE200AD2ED000A92ED031A29
:100F600000EE810AD0ED000A60EE200A92ED011A2F
:100F7000D2ED011AB6EE000A01EE610AD2ED031AB3
:100F800092ED032AB0EE401A01EEC21AD0ED011A1A
:100F9000B0EE600A01EE210AD2ED020A92ED031AC8
:100FA00060EE810A92ED001AD2ED011A41EE610A5B
:100FB00090ED021A00EE810AF0EE000A20EE200AFF
:100FC00081ED010A92ED010AD2ED030A20EE200A1A
:100FD000D2ED000A92ED021A00EEC10AD0ED000A2D
:100FE00020EE200AD2ED020A92ED031A60EE810A89
:100FF00092ED001AD2ED011A41EE210A90ED011A8C
:1010000000EE810A92ED011AD2ED011AF6EE000A05
:1010100041EE610A92ED021AD2ED021A41EE610A26
:1010200090ED021A00EE810AF0EE000A20EE200A8E
:1010300081ED020A704700BFFEE7000070B52DED9C
:10104000048B88B0044600200690079000F07EFFD5
:10105000FE4880ED000A00BF00F078FFFB48D0EDAD
:10106000000A30EE600AF2EE040AB4EEE00AF1EE95
:1010700010FA14DD9FEDF60A84ED090A9FEDF50ADA
:1010800084ED0A0A9FEDF40A84ED0B0A9FEDF30A42
:1010900084ED0F0A9FEDF20A84ED060A5FE29FEDF0
:1010A000F10A00F00FFF9FEDF00A84ED0F0A9FEDAB
:1010B000EE0A84ED090A9FEDEC0A84ED0A0A9FED21
:1010C000EA0A84ED0B0A002673E1FFF7B5FC9220D3
:1010D000FFF7E8FE062206A91220FFF7C3FEFFF77E
:1010E000A1FC9DF81900000200B29DF8181040EA1A
:1010F000010500EE105AB8EEC00ADC48D0ED000A37
:1011000020EE200A84ED000A9DF81B00000200B2C8
:101110009DF81A1040EA010500EE105AB8EEC00A18
:10112000D248D0ED000A20EE200A84ED010A9DF895
:101130001D00000200B29DF81C1040EA010500EEFF
:10114000105AB8EEC00AC948D0ED000A20EE200AB5
:1011500084ED020AD4ED000A60EEA00A94ED011AB3
:10116000D4ED011A41EE210A94ED021AD4ED021ACF
:1011700041EE210AB0EE600A0CF077FCB0EE408A36
:1011800094ED0F0A30EE080A84ED0F0AFFF768FCB1
:10119000082206A90020FFF765FEFFF757FC9DF81F
:1011A00018000F2850D19DF81B00000200B29DF8D6
:1011B0001A1040EA010500EE105AB8EEC00AAC4819
:1011C000D0ED000A20EE200A84ED030A94ED090A0E
:1011D000D4ED030A30EE200A84ED090A9DF81D00C3
:1011E000000200B29DF81C1040EA010500EE105A02
:1011F000B8EEC00A9E48D0ED000A20EE200A84ED29
:10120000040A94ED0A0AD4ED040A30EE200A84EDB3
:101210000A0A9DF81F00000200B29DF81E1040EA65
:10122000010500EE105AB8EEC00A9148D0ED000A50
:1012300020EE200A84ED050A94ED0B0AD4ED050A90
:1012400030EE200A84ED0B0A06BBF0EE488AB0EEC1
:10125000489A002017E004F10C0101EB800191EDA8
:10126000000A03A901EB800181ED000A04F10C01E1
:1012700001EB800191ED000A694601EB800181EDEF
:10128000000A411CC8B20328E5DB49E0B4EEE88A55
:10129000F1EE10FA01DDF0EE488AB4EEC98AF1EE03
:1012A00010FA01D2B0EE489A002037E004F10C01A8
:1012B00001EB800191ED000A03A901EB8001D1ED62
:1012C000000AB4EEE00AF1EE10FA0ADD04F10C01B6
:1012D00001EB800191ED000A03A901EB800181ED92
:1012E000000A04F10C0101EB800191ED000A69464E
:1012F00001EB8001D1ED000AB4EEE00AF1EE10FA44
:101300000AD204F10C0101EB800191ED000A69465B
:1013100001EB800181ED000A411CC8B20328C5DB46
:1013200038EEC90A534880ED000A002012E003A9F4
:1013300001EB800191ED000A694601EB8001D1EDDE
:10134000000A30EE600A4C4901EB800181ED000A91
:10135000411CC8B20328EADB464890ED000AF6EECD
:10136000000AB4EEE00AF1EE10FA1BDC424890ED00
:10137000000ADFED420AB4EEE00AF1EE10FA11DCE9
:1013800090ED010ADFED3D0AB4EEE00AF1EE10FA4D
:1013900008DC90ED020ADFED390AB4EEE00AF1EE66
:1013A00010FA00DD0AE09FED360A00F08BFD701C9C
:1013B00086B2344800888642FFF687AE00BFD4ED7F
:1013C0000F0A3048008800EE100AB8EE400A80EE9E
:1013D000801A84ED0F1A002015E004F1240101EBBE
:1013E0008001D1ED000A2749098800EE101AB8EEF5
:1013F000400A80EE801A04F1240101EB800181EDA6
:10140000001A411CC8B20328E7DBFFF715FBA22036
:10141000FFF748FD022206A92220FFF723FDFFF770
:1014200001FB9DF81800C0009DF8191040EA6115F5
:10143000B5F5806F02DBA5F5006005B200EE105A2D
:10144000F8EEC00AB4EE001A1EE0000064000024AA
:10145000F0A032BAB9F3AFBAB1EFBBBA7A841D418A
:10146000000020420AD7A33B000000002C0000240B
:101470003000002438000024C80800249A99193E3E
:101480006F12033A68000024B3EE070A00EE810AE7
:1014900084ED060A7C480088401C00B27A49088026
:1014A0007A4890ED000AF6EE000AB4EEE00AF1EE9A
:1014B00010FA3FF7D1ADD4ED0F0A9FED751A70EE1B
:1014C000C10AB0EE600A0CF098FDF6EE000AB4EE28
:1014D000E00AF1EE10FAECDC6E4890ED000A5FEDE8
:1014E000190AB4EEE00AF1EE10FAE2DC90ED010A1E
:1014F0005FED1E0AB4EEE00AF1EE10FAD9DC90EDD1
:10150000020A5FED220AB4EEE00AF1EE10FAD0DC36
:10151000D4ED090AB0EE600A0CF06FFDDFED5E0A53
:10152000B4EEE00AF1EE10FAC3DCD4ED0A0AB0EE34
:10153000600A0CF062FDDFED580AB4EEE00AF1EE4D
:1015400010FAB6DCD4ED0B0AB0EE600A0CF055FDD3
:10155000DFED510AB4EEE00AF1EE10FAA9DC00BFAB
:1015600094ED0F0ADFED4D0A80EE801A84ED081A23
:10157000002680E0FFF760FA9220FFF793FC062236
:1015800006A91220FFF76EFCFFF74CFA9DF8190030
:10159000000200B29DF8181040EA010500EE105A52
:1015A000B8EEC00A3E48D0ED000A20EE200AD4ED85
:1015B000080A20EE200A84ED000A94ED0C0ADFED03
:1015C000390A20EE200AD4ED000A9FED371A00EE0A
:1015D000810A84ED0C0A9DF81B00000200B29DF800
:1015E0001A1040EA010500EE105AB8EEC00A2C4865
:1015F000D0ED000A20EE200AD4ED080A20EE200AE1
:1016000084ED010A94ED0D0ADFED260A20EE200A92
:10161000D4ED010A9FED241A00EE810A84ED0D0A33
:101620009DF81D00000200B29DF81C1040EA010563
:1016300000EE105AB8EEC00A1948D0ED000A20EEAC
:10164000200AD4ED080A20EE200A84ED020A94ED67
:101650000E0ADFED140A20EE200AD4ED020A9FEDF7
:10166000121A00EE810A84ED0E0A1FED7B0A00F0CB
:1016700029FC701C86B20D4800888642FFF67AAFBE
:1016800008B0BDEC048B70BD3E000024380000247F
:10169000CDCC1C41C80800240AD7233CC3F51C410B
:1016A0002C000024CDCC4C3FCDCC4C3E6A00002415
:1016B00000BF00F02DF8FCE770B5044600220121C0
:1016C00020460DF0CBFF0022022104F13C000DF07A
:1016D000C5FF002508E0228821890C480CF06CFC2D
:1016E00001200DF0F2F96D1C0A2DF4DB002509E054
:1016F000A28F4420015B05480CF05EFC01200DF038
:10170000E4F96D1C0A2DF3DB70BD0000E401002438
:1017100002E001200DF0D9F9644890F8900000280B
:10172000F7D06348FFF7C8FFBEE0604960480CF09F
:101730006DFB5F48D0ED270A9FED5E1A71EE600ADF
:10174000B0EE600ADFED5C0A5C480DF0E7F95C483A
:1017500080ED000A5648D0ED1E0A90ED201A70EE7A
:10176000C10AB0EE600ADFED540A56480DF01CFACB
:10177000554880ED000A524890ED000A5248D0EDDD
:10178000000A30EE200A4A4880ED010AD0ED240A12
:10179000464890ED061A70EEC10AB0EE600ADFED21
:1017A000460A4A480DF0DDF9494880ED000A4048F4
:1017B00090ED010AB1EE400A4548D0ED000A30EE46
:1017C000600A3B4880ED100A90ED010A4048D0EDD8
:1017D000000A30EE600A364880ED010ADFED3D0A6E
:1017E0009FED3D0A00F14001001D0DF0DFFC304887
:1017F00090F8A80001282AD12D4890ED010AB0EEFA
:10180000402ADFED361A9FED351ADFED340A9FEDE1
:10181000330A012132480DF0D1F8324800680DF04A
:1018200054F9234890ED100AB0EE402ADFED2B1A50
:101830009FED2A1ADFED290A9FED280A0221284888
:101840000DF0BCF8274800680DF03FF92CE018486F
:1018500090F8A80040BB164890ED290A80ED240AB4
:101860009FED1E2ADFED1D1A9FED1C1ADFED1B0AEE
:101870009FED1A0A01211A480DF0A0F819480068D6
:101880000DF023F99FED152ADFED141A9FED131AC1
:10189000DFED120A9FED110A022111480DF08EF8BA
:1018A000104800680DF011F93FE7000004820024A1
:1018B000348300248FC2F53C6F12033B14010024D3
:1018C00008010024280100240C0100243C0100240C
:1018D00010010024CDCCCC3DCDCCCCBD000000000F
:1018E000E40100240001002410B5024802F07EFA51
:1018F00010BD00004C04002410B5024802F076FA36
:1019000010BD0000C404002410B5024802F06EFAB5
:1019100010BD0000A406002410B5024802F066FACB
:1019200010BD00001C0700240146374A0868904299
:1019300049D0354A18320868904244D0324A303291
:10194000086890423FD0304A4832086890423AD006
:101950002D4A60320868904235D02B4A78320868A8
:10196000904230D0284A9032086890422BD0264AC4
:10197000A8320868904226D0244A0868904222D0B3
:10198000224A1832086890421DD0204A3032086836
:10199000904218D01D4A48320868904213D01B4A22
:1019A0006032086890420ED0184A78320868904237
:1019B00009D0164A90320868904204D0134AA832DF
:1019C0000868904201D1012000E00020B0B10A78FF
:1019D000103A1823B2FBF3F000F007020C4B9A5CAC
:1019E000CA65032805D90A686FF30902121D8A65C2
:1019F00003E00A686FF309028A6503E0086820F0D3
:101A0000FF008865886D7047100002401004024096
:101A1000DCFA000810B502682B4C0368A34222D000
:101A2000294C14340368A3421DD0274C2834036882
:101A3000A34218D0244C3C340368A34213D0224C58
:101A400050340368A3420ED01F4C64340368A34291
:101A500009D01D4C78340368A34204D01A4C8C344E
:101A60000368A34201D1012300E000238BB1037876
:101A7000083B1424B3FBF4F1144B03EB810303661E
:101A8000124B8033436601F01F040123A340836699
:101A900018E00378103B1824B3FBF4F10C4B9A4286
:101AA00004D80B4BA83B9A4200D30831094B03EBF7
:101AB00081030366074B8033436601F01F04012353
:101AC000A340836610BD0000085402580058025815
:101AD000B8040240000802400179A9B3082940D89F
:101AE000204B02689A4222D01E4B143302689A425D
:101AF0001DD01C4B283302689A4218D0194B3C3336
:101B000002689A4213D0174B503302689A420ED0A3
:101B1000144B643302689A4209D0124B783302683E
:101B20009A4204D00F4B8C3302689A4201D10122B1
:101B300000E000224AB14A1E0B4B03EB8202C26650
:101B4000094A4032026708E00BE04A1E074B03EBEC
:101B50008202C266054A403202674A1E0123934050
:101B60004367704708540258005902580009024060
:101B7000014600208A69D2B98A6A32B1012A0DD0A1
:101B8000022A03D0032A10D10EE000BFCA6A02F075
:101B90008072B2F1807F00D1012007E0CA6AB2F101
:101BA000C07F00D1012001E000E000BF36E08A697B
:101BB000B2F5005F1BD18A6A32B1012A07D0022A2E
:101BC00003D0032A11D10AE000BF01200EE0CA6A47
:101BD00002F08072B2F1807F00D1012006E0CA6A73
:101BE000B2F1C07F00D1012000E000BF16E08A6A98
:101BF00032B1012A05D0022A04D0032A0CD103E015
:101C000000BF00BF012008E0CA6A02F08072B2F192
:101C1000807F00D1012000E000BF00BF70470000BE
:101C2000F0B5856D846D984F0668BE4270D0964FB2
:101C300018370668BE426BD0934F30370668BE42F5
:101C400066D0914F48370668BE4261D08E4F6037EC
:101C50000668BE425CD08C4F78370668BE4257D0CB
:101C6000894F90370668BE4252D0874FA837066822
:101C7000BE424DD0854F0668BE4249D0834F1837CB
:101C80000668BE4244D0814F30370668BE423FD01E
:101C90007E4F48370668BE423AD07C4F60370668B0
:101CA000BE4235D0794F78370668BE4230D0774F84
:101CB00090370668BE422BD0744FA8370668BE42E4
:101CC00026D0734F0668BE4222D0714F1437066883
:101CD000BE421DD06E4F28370668BE4218D06C4FEA
:101CE0003C370668BE4213D0694F50370668BE4283
:101CF0000ED0674F64370668BE4209D0644F78370C
:101D00000668BE4204D0624F8C370668BE4201D1DD
:101D1000012600E000263EB1D0E919767E60C66E4D
:101D200016B1D0E91C767E60574F0668BE4249D096
:101D3000554F18370668BE4244D0534F30370668B7
:101D4000BE423FD0504F48370668BE423AD04E4F51
:101D500060370668BE4235D04B4F78370668BE42C2
:101D600030D0494F90370668BE422BD0464FA83737
:101D70000668BE4226D0454F0668BE4222D0434F79
:101D800018370668BE421DD0404F30370668BE4245
:101D900018D03E4F48370668BE4213D03B4F6037DD
:101DA0000668BE420ED0394F78370668BE4209D069
:101DB000364F90370668BE4204D0344FA8370668C5
:101DC000BE4201D1012600E00026DEB190F85C6041
:101DD00006F01F073F26BE40AE600668366826F450
:101DE000802607683E60066873608668402E04D1CE
:101DF0000668B2600668F16044E00668B160066893
:101E0000F2603FE0224F0668BE4222D0204F1437D6
:101E10000668BE421DD01E4F28370668BE4218D045
:101E20001B4F3C370668BE4213D0194F5037066827
:101E3000BE420ED0164F64370668BE4209D0144F1A
:101E400078370668BE4204D0114F8C370668BE4210
:101E500001D1012600E00026A6B190F85C6006F0F2
:101E60001F070126BE406660066873608668402EC4
:101E700004D10668B2600668F16003E00668B160EC
:101E80000668F260F0BD000010000240100402403D
:101E90000854025808B5084840680090074900985F
:101EA0000968884204D206480068401C044908605A
:101EB00002490098086008BD001000E09801002465
:101EC000940100240C494868F0EE400A00BF0A491A
:101ED0004968091A01EE101AF8EE411A074991ED06
:101EE000001AB8EE411A20EE811AF4EEC11AF1EE92
:101EF00010FAECD370470000001000E088010024C5
:101F000010B52DED028B82B004460E48406801905A
:101F100020680199081A00EE100AF8EE400A0A48F3
:101F200090ED000AB8EE400A80EE801AB0EE418AC9
:101F300001982060FFF7AEFFB0EE480A02B0BDEC9A
:101F4000028B10BD001000E08801002410B52DEDBB
:101F5000028B00F059F80F4890ED000AB8EE400AE5
:101F6000808800EE900AF8EE600A9FED0B1A00EEF2
:101F7000810A0848C08800EE900AF8EE600A9FEDDA
:101F8000071A00EE810AB0EE408AB0EE480ABDECB6
:101F9000028B10BD800100246F12833ABD37863555
:101FA0001249096841F08071104A11600021104AFD
:101FB00051601146096841F0010111600D4941432A
:101FC0000D4A1160114609684FF47A72B1FBF2F1C3
:101FD0000A4A116008490968064AB1FBF2F1084A49
:101FE00011600021074A116070470000FCED00E01D
:101FF000001000E040420F00880100248C01002402
:10200000900100249401002438B5294840680090CC
:10201000FFF740FF274800684FF0FF31A0FB013178
:102020000098181841F10001234A03C223480023F5
:102030002149026803C9FEF7C7F9214A03C22048B3
:102040000CC81E4800680024A2FB001503FB0050CA
:1020500002FB04021848D0E90030591A60EB020074
:10206000184AC2E900101648006817490860174866
:1020700000231449026803C9FEF7A6F912498880B3
:10208000084680881149096841430E48D0E900306C
:10209000591A60F100000E4AC2E900100D480023F1
:1020A0000B49026803C9FEF78FF90749C88038BD9C
:1020B000001000E094010024A00100248801002405
:1020C000A8010024B0010024800100248C01002418
:1020D000B8010024900100247047D2ED020A92ED6D
:1020E000021AB6EE000A00EEC10AD2ED030A92ED22
:1020F000031A00EEC10AD0ED000A20EE200AD2ED4C
:10210000010A92ED021A60EE810A92ED001AD2EDF8
:10211000031A41EE210A90ED011A00EE810AD2ED78
:10212000010A92ED031A60EE810A92ED001AD2EDD7
:10213000021A41EE610A90ED021A00EE810AF0EEF9
:10214000000A20EE200A81ED000A92ED010AD2ED8C
:10215000020A20EE200AD2ED000A92ED031A00EEE8
:10216000C10AD0ED000A60EE200A92ED011AD2ED0C
:10217000011AB6EE000A01EE610AD2ED031A92EDE1
:10218000032AB0EE401A01EEC21AD0ED011AB0EEE9
:10219000600A01EE210AD2ED020A92ED031A60EE06
:1021A000810A92ED001AD2ED011A41EE210A90ED5A
:1021B000021A00EE810AF0EE000A20EE200A81EDFC
:1021C000010A92ED010AD2ED030A20EE200AD2EDB7
:1021D000000A92ED021A00EE810AD0ED000A20EE0C
:1021E000200AD2ED020A92ED031A60EE810A92ED06
:1021F000001AD2ED011A41EE610A90ED011A00EECB
:10220000810A92ED011AD2ED011AF6EE000A41EEB2
:10221000610A92ED021AD2ED021A41EE610A90EDC6
:10222000021A00EE810AF0EE000A20EE200A81ED8B
:10223000020A704772B600BFFEE7000000B589B021
:1022400000200190029002200390012004900020C1
:102250000590069001A9104803F06FF808B1FFF748
:10226000E9FF002003460222114600900A4803F0CD
:10227000B8F808B1FFF7DEFF00220121064802F09E
:10228000BFFF08B1FFF7D6FF034803F06DFE08B1AA
:10229000FFF7D0FF09B000BDE401002410B50248EB
:1022A00003F0B8F910BD0000E401002400B589B0C6
:1022B0000020019001200290022003900490002051
:1022C0000590069001A9104803F037F808B1FFF710
:1022D000B1FF002003460222114600900A4803F095
:1022E00080F808B1FFF7A6FF00221021064802F08F
:1022F00087FF08B1FFF79EFF034803F035FE08B1E2
:10230000FFF798FF09B000BD8402002410B5024811
:1023100003F080F910BD00008402002410B50248CB
:1023200003F078F910BD00002403002410B5014625
:102330004A6B0868D0F884004FF6FC74A04340EA6A
:1023400082000C68C4F884000868D0F8840020F487
:102350007F04088F44EA00400C68C4F88400886B4E
:1023600002440868D0F888004FF6FC74A04340EAA5
:1023700082000C68C4F888000868D0F8880020F44F
:10238000FE04888F44EA00400C68C4F88800C86BDB
:1023900002EB40020868D0F8A0004FF6FC74A0439E
:1023A00040EA82000C68C4F8A0000868D0F8A000D9
:1023B00020F4FE044020405A44EA00400C68C4F86F
:1023C000A000D1E9104004FB00220868D0F8B0005A
:1023D0004FF6FC74A04340EA82000C68C4F8B000D9
:1023E0000868D0F8B00020F4FE04B1F8480044EAD0
:1023F00000400C68C4F8B000D1E9124004FB002290
:102400000868D0F8AC004FF6FC74A04340EA8200A4
:102410000C68C4F8AC00D1E9144004FB0022086841
:10242000D0F8F0004FF6FC74A04340EA82000C683C
:10243000C4F8F0000868D0F8F00020F47C14B1F87B
:10244000580044EA00400C68C4F8F000886D02EBC4
:1024500040020868D0F8C0004FF6FC74A04340EA80
:1024600082000C68C4F8C0000868D0F8C00020F4EE
:102470007C14B1F85C0044EA00400C68C4F8C00069
:102480000868D0F8C00020F07C5491F8600044EA5D
:1024900000600C68C4F8C0002A4C486B04EB800054
:1024A000C866CC6E886B04EB80040C670C6FC86B3D
:1024B00004EBC0044C67D1E9100460434C6F04EB9B
:1024C00080048C67D1E9120460438C6F04EB8004B4
:1024D000CC67D1E914046043CC6F04EB8004802006
:1024E00044504458886D04EBC004842044508C6EE2
:1024F000C86D60438424645804EB800488204450F1
:102500008C6E086E60438824645804EB800490202D
:10251000445040580C4CA04209D99831486840F0CA
:1025200020004860032001F89809012010BDCB6EFF
:1025300002E0002018601B1D902040589842F8D8F7
:102540000020F3E700AC0040FCD300402DE9F0414F
:10255000054614461E46D1F804C0BCF1000F0AD14E
:10256000D1F810C0D1F808804CEA080CB1F800800E
:102570004CEA88430BE0D1F810C04CF0804CD1F805
:1025800008804CEA080CD1F800804CEA080391F866
:102590002080D1F81CC04CEA086CD1F818804CEAB5
:1025A000080CD1F814804CEA080CB1F80C804CEA05
:1025B0000847D5F868C00CFB06FCD5F8848008EB0A
:1025C0008C021360121D1760121D002019E000F12B
:1025D000030C14F80CC04FEA0C6800F1020C14F85C
:1025E0000CC048EA0C4800F1010C14F80CC048EA91
:1025F0000C2C14F800804CEA080CC2F800C0121D24
:10260000001DDFF81480D1F80CC018F80CC0844508
:10261000DDD8BDE8F0810000E4FA0008F8B5044612
:102620000D4616460020009000BF94F85C0001287B
:1026300001D10220F8BD012084F85C0000BF2046D3
:10264000FEF740F90746A7BB206E20F4885040F003
:1026500002002066206805F4803141F0004106F058
:10266000804211438268194B1A401143816000BFB8
:1026700013E00098401C00901549009888420CD344
:10268000206E20F0020040F01000206600BF002005
:1026900084F85C0000BF0120CCE720688168C90F86
:1026A0000029E6D1206E20F0020040F001002066F3
:1026B00004E0FFE7206E40F01000206600BF00201D
:1026C00084F85C0000BF3846B4E70000C0FFFE3F5E
:1026D00000F8C3252DE9F0439DB004460E464FF0A7
:1026E0000008306800B100BF00BF94F85C0001280A
:1026F00003D102201DB0BDE8F083012084F85C0006
:1027000000BF002019901A9046492068884202D1E3
:102710004548019001E000200190019850B9206ED9
:1027200040F02000206600BF002084F85C0000BF5D
:102730000120DFE7019808F0CFFD0746206808F088
:10274000CBFD002861D1002F5FD136492068884237
:1027500003D035492068884201D1344800E034482C
:102760000546306858B3A86820F4404071680843B3
:10277000A8602C492068884203D02B4920688842F1
:1027800001D12A4800E02A482849884209D1254831
:1027900008F093FD8146244808F08FFD49EA0000C7
:1027A00002E0244808F089FD70BBB1683068084336
:1027B000A96840F61F7291430843A8602BE0A868FF
:1027C00020F44040A86017492068884203D0164989
:1027D0002068884201D1154800E015481349884215
:1027E00009D1104808F069FD81460F4808F065FDE1
:1027F00049EA000002E00F4808F05FFD20B9A86830
:1028000040F61F718843A86005E0206E40F020006C
:1028100020664FF0010800BF002084F85C0000BF74
:10282000404667E7002002400021024000230240AA
:1028300000630258006002582DE9F84F04460D4627
:102840004FF0000A0020009094F84400012800D1C5
:1028500005E0FE492068884200D100E000BFFC4945
:10286000E868884200D00EE0FA492068884200D12A
:1028700000BFF9492068884200D100BFF3492068B1
:10288000884200D100BF00BF94F85C00012802D14B
:102890000220BDE8F88F012084F85C0000BF2068AA
:1028A00008F015FD002876D1286800F00040C8B96E
:1028B000E6492068884215D02068C1692868C0F3BD
:1028C000130018B92868C0F3846004E0286890FAFF
:1028D000A0F0B0FA80F000F01F0201209040014308
:1028E0002068C1612168D5E9002001F1300CC0F3F6
:1028F000012B0CEB8B03D3F800C000F01F0E4FF040
:102900001F0B0BFA0EFB2CEA0B0C00F01F0BC2F393
:10291000846E0EFA0BFE4CEA0E0CC3F800C000BF2A
:10292000206808F0D4FC8146206808F0B7FC074610
:10293000B9F1000F7ED1002FFCD1AA682968206868
:1029400008F0E0FCC1492068884208D16869216824
:10295000C968C1F3C101490000FA01F825E0BF4888
:10296000006800F07040B0F1805F07D168692168AD
:10297000C968C1F382014900884015E02068C06839
:1029800000F0100040B968692168C968C1F382018C
:102990004900884008E0F2E268692168C96801F0EE
:1029A00010018908490088408046286904287CD0A5
:1029B00021684346D5F810C02A6801F1600B0BEB83
:1029C0008C00DFF888B259450AD1D0F800B002F087
:1029D000F84E4EF0004E4EEA030EC0F800E00BE059
:1029E000D0F800B00BF0004B02F0F84E4EEA030EA8
:1029F0004BEA0E0BC0F800B000BF94492068884233
:102A000031D12068EA692969904B98420CD100F1D4
:102A1000600C0CEB8103D3F800C02CF0807C4CEAF6
:102A2000020CC3F800C000BF00BF206895F820204A
:102A3000296900E0F5E0012A01D1520600E00022F8
:102A40001346824A90420CD100F1600C0CEB8102DB
:102A5000D2F800C02CF0007C4CEA030CC2F800C095
:102A600000BF00BF21E1206895F821202969012AD3
:102A700001D1D20700E000221346744A90420CD0E4
:102A800000F1600C0CEB8102D2F800C02CF0004C7D
:102A90004CEA030CC2F800C000BF00BF20682B7EC8
:102AA0002969012B02D1DB0201E00DE000231A4667
:102AB000036923F4F04301F01F0C02FA0CFC43EA13
:102AC0000C03036100BFF0E060492068884271D1C7
:102AD0000021206808F0D9FBC0F3130030B90021B1
:102AE000206808F0D2FBC0F3846007E00021206872
:102AF00008F0CBFB90FAA0F0B0FA80F02968C1F39F
:102B0000130119B92968C1F3846104E0296891FAB5
:102B1000A1F1B1FA81F1884204D100221146206866
:102B200008F00AFC0121206808F0AFFBC0F3130095
:102B300030B90121206808F0A8FBC0F3846007E0E9
:102B40000121206808F0A1FB90FAA0F0B0FA80F013
:102B50002968C1F3130119B92968C1F3846104E03C
:102B6000296891FAA1F1B1FA81F1884204D10022D9
:102B70000121206808F0E0FB0221206808F085FBB5
:102B8000C0F3130030B90221206808F07EFBC0F3C7
:102B9000846007E00221206808F077FB90FAA0F03B
:102BA000B0FA80F02968C1F3130121B92968C1F393
:102BB000846105E036E0296891FAA1F1B1FA81F16A
:102BC000884204D100220221206808F0B5FB0321CD
:102BD000206808F05AFBC0F3130030B903212068C5
:102BE00008F053FBC0F3846007E00321206808F07D
:102BF0004CFB90FAA0F0B0FA80F02968C1F3130101
:102C000019B92968C1F3846104E0296891FAA1F136
:102C1000B1FA81F1884248D100220321206808F0EE
:102C20008BFB42E02068006E00F0F8402978B0EBA2
:102C3000816F05D12068006E20F000402168086691
:102C40002068406E00F0F840297809E000600258E2
:102C50000000FF4700200240002102400010005CFD
:102C6000B0EB816F05D12068406E20F000402168F4
:102C700048662068806E00F0F8402978B0EB816FDC
:102C800005D12068806E20F00040216888662068A9
:102C9000C06E00F0F8402978B0EB816F05D1206854
:102CA000C06E20F000402168C866206808F000FB74
:102CB00000286FD12068EA682968B74B984212D182
:102CC000D0F8B030C1F3130C23EA0C0302F0180B58
:102CD000DFF8C8C22CFA0BFC0CEA010C43EA0C0327
:102CE000C0F8B03011E0D0F8C030C1F3130C23EAC3
:102CF0000C0302F0180BDFF8A4C22CFA0BFC0CEA50
:102D0000010C43EA0C03C0F8C03000BFA449E868D6
:102D100088427DD12B68C3F313031BB92B68C3F31F
:102D2000846304E02B6893FAA3F3B3FA83F35B1C88
:102D300003F01F03092B3FD82B68C3F313031BB900
:102D40002B68C3F3846304E02B6893FAA3F3B3FA0C
:102D500083F35B1C03F01F034FF0010C0CFA03FC20
:102D60002B68C3F313031BB92B68C3F3846304E01C
:102D70002B6893FAA3F3B3FA83F35B1C03F01F03EE
:102D80004CEA836C2B68C3F3130323B92B68C3F39A
:102D9000846305E0B1E02B6893FAA3F3B3FA83F3FD
:102DA0005B1C03F01F0303EB43034FF0000B4BEAE4
:102DB00003534CEA030340E02B68C3F313031BB92E
:102DC0002B68C3F3846304E02B6893FAA3F3B3FA8C
:102DD00083F35B1C03F01F034FF0010C0CFA03FCA0
:102DE0002B68C3F313031BB92B68C3F3846304E09C
:102DF0002B6893FAA3F3B3FA83F35B1C03F01F036E
:102E00004CEA836C2B68C3F313032BB92B6800E0E7
:102E100018E0C3F3846304E02B6893FAA3F3B3FAD6
:102E200083F35B1C03F01F030A3B03EB43034FF0E8
:102E3000007B4BEA03534CEA03031946AA68206857
:102E400008F060FA286800F00040002855D0554A84
:102E50002168914203D0544A2168914201D15349DB
:102E600000E053490846816801F0E07600BF4D4913
:102E70002068884203D04C492068884201D14B48E1
:102E800000E04B484949884209D1464808F010FA09
:102E90008346454808F00CFA4BEA000002E03E4841
:102EA00008F006FAF0BB43492868884226D106F4A8
:102EB000000018BB38492068884266D1394B226827
:102EC0009A4203D0384B22689A4201D1374A00E037
:102ED000374A104646F4000108F028FA36480068E0
:102EE0003649B0FBF1F0401C4000009002E0009831
:102EF000401E009000980028F9D146E0304928682B
:102F0000884219D106F08070B0B923492068884200
:102F10003BD1244B22689A4203D0234B22689A4229
:102F200003D100E024E0214A00E0214A104646F0A7
:102F3000807108F0FBF928E022492868884224D1F2
:102F400006F4800008BB1449206888421DD1154B47
:102F500022689A4203D0144B22689A4201D1134A44
:102F600000E0134A104646F4800108F0DFF90CE057
:102F7000206E40F0200020664FF0010A05E0206E30
:102F800040F0200020664FF0010A00BF002084F8C6
:102F90005C0000BF50467CE400600258FFFF0F0059
:102FA0000000FF47002002400021024000230240B1
:102FB00000630258000052C724000024400D0300A3
:102FC000000021C3000084CB7047704770470000A9
:102FD0002DE9F84F04464FF000090020009014B985
:102FE0000120BDE8F88F206920B12020005D012874
:102FF00000D100BF206E30B9204600F089F90020D2
:10300000606684F85C0020688168C1F3407131B16A
:1030100020688168B24A1140816000BF00BF20680B
:1030200008F050F9A8B920688168AE4A114041F013
:103030008051816000BFAC480068AC49B0FBF1F042
:10304000401C009002E00098401E0090009800286C
:10305000F9D1206808F036F948B9206E40F0100028
:103060002066606E40F0010060664FF00109206844
:1030700008F02DF90646206E00F0100000287DD1E2
:10308000002EFCD1206E20F4807040F002002066FB
:10309000206808F00DF978BB95492068884203D074
:1030A00094492068884201D1934800E093489249AE
:1030B000884209D18E4808F0FBF882468D4808F016
:1030C000F7F84AEA000002E08D4808F0F1F898B9F4
:1030D000874B22689A4203D0864B22689A4201D1DC
:1030E000854A00E0854A10466168826822F47C12B5
:1030F0000A43826000BF00BF81492068884223D113
:10310000607EE16B41EA4030E1680843A16808292C
:1031100001D100210FE0A1680C2901D104210AE0AE
:10312000A1681C2901D1082105E0A168182901D155
:103130001C2100E0002101F00C0140EA41012020A7
:10314000005D41EA004509E0607EE16B41EA403004
:10315000A16808432021095D40EA01452020005D67
:10316000012803D1A08C401E45EA4045A06A38B131
:10317000208D00F47870E16A084300E0A7E0054381
:103180005F49206888420FD12068C0685D490840C7
:1031900028432168C8602068006920F04060616BA6
:1031A00008432168086106E02068C0685649084065
:1031B00028432168C860206808F089F880462068A4
:1031C00008F06CF80746B8F1000F66D1002F64D103
:1031D0004B492068884206D1207E810394F838004C
:1031E00041EA400503E0207E216B41EA80352068FA
:1031F000C06844F20301884328432168C86094F8FA
:103200004400012834D13E492068884200D100E0C2
:1032100000BFA06A08B1E06A00B900BF3849206861
:10322000884210D1A06C40F00101E06C0843216D90
:103230000843616D084321680969344A1140084315
:10324000216808611AE0B4F84800401E012141EAF3
:103250000041E06C0843216D0843616D084321681B
:1032600009692A4A521E114008432168086105E095
:103270002068006920F00100216808612068006969
:1032800020F07040216C0843216808611C492068C7
:10329000884202D02046FDF71DFA2069012809D195
:1032A0002068006B20F00F00E169491E0843216887
:1032B000086305E02068006B20F00F0021680863B8
:1032C000206E20F0020040F00100206605E0206E34
:1032D00040F0100020664FF00109484681E60000EA
:1032E000C0FFFF5FC0FFFF7F24000024400D0300EC
:1032F00000200240002102400023024000630258E7
:10330000006002580740F0FF03C0F0FF1FF800FC08
:1033100010B5B6B00446142130A8FDF79FF8B821C7
:1033200002A8FDF79BF833492068884260D14FF42A
:1033300000210020CDE90210022004901021059107
:103340000221069107910891C021099100210A915B
:103350000B9100202A9002A803F098FF08B1FEF715
:1033600069FF00BF2448006840F02000224908603F
:103370000846006800F02000019000BF00BF00BFB9
:103380001D480830006840F001001B490831086002
:103390000846006800F00100019000BF00BF202037
:1033A0003090032031900020329030A9134802F071
:1033B000FFFD1348134908600920486000211148A7
:1033C0008160C1604FF48061016149004161890001
:1033D00081614911C16100210162416201F082FAFB
:1033E00008B1FEF727FF00BF0648A065846300BF51
:1033F00036B010BD00200240D844025800000258E8
:1034000010000240500800242DE9F04104460F4608
:103410009046514A2168914203D0504A2168914216
:1034200001D14F4900E04F49084607F029FF064601
:10343000206807F04CFF00287CD100BF94F85C00A6
:10344000012802D10220BDE8F081012084F85C004F
:1034500000BF1EB1052E01D0092E73D12046FDF705
:103460007BFA0546002D68D1206E40F60161884345
:1034700040F48070206639492068884201D136487E
:1034800000E020682168884200D01EB9206E20F438
:1034900080102066206E00F4805020B1606E20F015
:1034A0000600606601E0002060662F48A16DC863D9
:1034B0002E48A16D08642E48A16DC8641C202168A7
:1034C000086000BF002084F85C0000BF20684068EE
:1034D00040F010002168486026492068884213D1D6
:1034E00094F8382051002068224A904204D1C268E2
:1034F00022F003020A43C26000BF2068C16841F0A5
:103500000101C16000BF08E0216B2068C26822F0A1
:1035100003020A43C26000BF00BF226802F14001FB
:1035200043463A46A06D01F067FC0546206807F067
:10353000E1FE0EE00CE005E0FFE700BF002084F8AC
:103540005C0006E0012500BF002084F85C0000E07C
:103550000225284677E700000020024000210240B3
:10356000002302400063025805080008B50800085F
:1035700097080008006002582DE9F041044602F067
:1035800015FE804614B90120BDE8F08194F835009D
:10359000022808D08020606500BF002084F8340035
:1035A00000BF0120F0E7FE492068884249D0FC496D
:1035B00018312068884244D0F94930312068884267
:1035C0003FD0F7494831206888423AD0F449603109
:1035D0002068884235D0F24978312068884230D05E
:1035E000EF499031206888422BD0ED49A8312068FE
:1035F000884226D0EB492068884222D0E949183118
:10360000206888421DD0E74930312068884218D0B0
:10361000E44948312068884213D0E249603120688B
:1036200088420ED0DF4978312068884209D0DD49D0
:1036300090312068884204D0DA49A8312068884255
:1036400001D1012000E0002068B12068006820F06E
:103650001E00216808602068406920F08000216811
:103660004861256806E02068006820F00E002168A7
:1036700008602568CA492068884270D0C849183156
:10368000206888426BD0C64930312068884266D0B5
:10369000C34948312068884261D0C14960312068FF
:1036A00088425CD0BE4978312068884257D0BC49F6
:1036B00090312068884252D0B949A83120688842A8
:1036C0004DD0B8492068884249D0B64918312068A1
:1036D000884244D0B3493031206888423FD0B14954
:1036E0004831206888423AD0AE496031206888422B
:1036F00035D0AC4978312068884230D0A949903122
:10370000206888422BD0A749A8312068884226D05B
:10371000A5492068884222D0A349143120688842F4
:103720001DD0A14928312068884218D09E493C31DB
:103730002068884213D09C495031206888420ED0BE
:10374000994964312068884209D0974978312068C6
:10375000884204D094498C312068884201D10120EC
:1037600000E0002028B1206E006820F48070216EF7
:1037700008608B492068884249D0894918312068FF
:10378000884244D086493031206888423FD08449FD
:103790004831206888423AD08149603120688842A7
:1037A00035D07F4978312068884230D07C499031CB
:1037B000206888422BD07A49A8312068884226D0D8
:1037C00078492068884222D076491831206888429A
:1037D0001DD0744930312068884218D07149483171
:1037E0002068884213D06F496031206888420ED02B
:1037F0006C4978312068884209D06A499031206844
:10380000884204D06749A8312068884206D12068E0
:10381000006820F001002168086005E02068006869
:1038200020F001002168086011E002F0BFFCA0EB6D
:10383000080005280BD920206065032084F8350096
:1038400000BF002084F8340000BF01209CE62868F7
:1038500000F001000028E8D151492068884249D091
:103860004F4918312068884244D04D493031206892
:1038700088423FD04A494831206888423AD0484976
:1038800060312068884235D04549783120688842C7
:1038900030D043499031206888422BD04049A8312C
:1038A0002068884226D03F492068884222D03D497E
:1038B0001831206888421DD03A493031206888424A
:1038C00018D0384948312068884213D035496031D2
:1038D000206888420ED0334978312068884209D068
:1038E000304990312068884204D02E49A8312068A0
:1038F000884201D1012000E0002040B1A66D94F87B
:103900005C0000F01F013F208840B06007E0A76D19
:1039100094F85C0000F01F01012088407860204985
:103920002068884276D01E4918312068884271D0BC
:103930001B493031206888426CD0194948312068D1
:10394000884267D0164960312068884262D01449A5
:103950007831206888425DD01149903120688842D2
:1039600058D00F49A8312068884253D00D492068AB
:1039700088424FD00B491831206888424AD0094903
:1039800030312068884245D0064948312068884255
:1039900040D004496031206888423BD0014905E0AD
:1039A0001000024010040240085402587831206888
:1039B00088422FD02549206888422BD023491831CE
:1039C0002068884226D022492068884222D0204997
:1039D0001431206888421DD01D4928312068884252
:1039E00018D01B493C312068884213D01849503107
:1039F000206888420ED0164964312068884209D078
:103A0000134978312068884204D011498C312068EC
:103A1000884201D1012000E0002068B1D4E91910EA
:103A20004860E06E40B1E06E006820F48070E16EA6
:103A30000860D4E91C104860012084F8350000BFFC
:103A4000002084F8340000BF00BF9DE5A0040240C0
:103A50000854025870B504460CB9012070BD94F8A2
:103A60003500022803D0802060650120F6E7DC499C
:103A70002068884249D0DA4918312068884244D009
:103A8000D7493031206888423FD0D5494831206835
:103A900088423AD0D24960312068884235D0D04936
:103AA00078312068884230D0CD49903120688842F2
:103AB0002BD0CB49A8312068884226D0C94920683C
:103AC000884222D0C7491831206888421DD0C54994
:103AD00030312068884218D0C24948312068884275
:103AE00013D0C0496031206888420ED0BD4978317A
:103AF0002068884209D0BB4990312068884204D0B0
:103B0000B849A8312068884201D1012000E0002096
:103B1000F0B3042084F83500B149206888424BD0C6
:103B2000AF4918312068884246D0AD49303120680D
:103B3000884241D0AA494831206888423CD0A849EF
:103B400060312068884237D0A549783120688842A2
:103B500032D0A3499031206888422DD0A049A831A5
:103B60002068884228D09F492068884224D09D49F7
:103B70001831206888421FD09A4930312068884225
:103B80001AD0984948312068884215D0954900E0FC
:103B900020E06031206888420ED092497831206858
:103BA000884209D08F4990312068884204D08D49DD
:103BB000A8312068884206D12068006820F0010002
:103BC0002168086009E12068006820F00100216890
:103BD000086002E12068006820F00E00216808609B
:103BE0007F492068884249D07D4918312068884241
:103BF00044D07B493031206888423FD078494831F1
:103C0000206888423AD0764960312068884235D0B1
:103C1000734978312068884230D0714990312068EA
:103C200088422BD06E49A8312068884226D06D4941
:103C30002068884222D06B491831206888421DD004
:103C4000684930312068884218D066494831206878
:103C5000884213D063496031206888420ED06149A0
:103C600078312068884209D05E49903120688842C6
:103C700004D05C49A8312068884206D120680068D9
:103C800020F001002168086005E02068006820F04D
:103C900001002168086052492068884270D050496C
:103CA0001831206888426BD04D49303120688842F5
:103CB00066D04B4948312068884261D0484960311C
:103CC000206888425CD0464978312068884257D0C5
:103CD000434990312068884252D04149A831206838
:103CE00088424DD03F492068884249D03D4918312B
:103CF0002068884244D03B493031206888423FD018
:103D000038494831206888423AD0364960312068C5
:103D1000884235D0334978312068884230D03149E3
:103D20009031206888422BD02E49A83120688842E3
:103D300026D02D492068884222D02B491431206892
:103D400088421DD0284928312068884218D0264949
:103D50003C312068884213D0234950312068884282
:103D60000ED0214964312068884209D01E4978313B
:103D70002068884204D01C498C312068884201D1D7
:103D8000012000E00020D8B1206E006820F480708F
:103D9000216E0860A56D94F85C0000F01F01012001
:103DA00088406860D4E919104860E06E40B1E06E68
:103DB000006820F48070E16E0860D4E91C1048604F
:103DC000012084F8350000BF002084F8340000BFD3
:103DD000206D10B12046216D884700203EE600008E
:103DE0001000024010040240085402582DE9F84F18
:103DF000044600200090FE4800684FF41651B0FBC6
:103E0000F1FAA66DD4F858803768D8F80090F949CF
:103E10002068884249D0F74918312068884244D048
:103E2000F4493031206888423FD0F2494831206857
:103E300088423AD0EF4960312068884235D0ED4958
:103E400078312068884230D0EA4990312068884231
:103E50002BD0E849A8312068884226D0E64920685E
:103E6000884222D0E4491831206888421DD0E249B6
:103E700030312068884218D0DF49483120688842B4
:103E800013D0DD496031206888420ED0DA4978319C
:103E90002068884209D0D84990312068884204D0EF
:103EA000D549A8312068884201D1012000E00020D6
:103EB00000287DD094F85C0000F01F0108208840A5
:103EC0003840002868D0CB492068884249D0C94989
:103ED00018312068884244D0C64930312068884271
:103EE0003FD0C4494831206888423AD0C149603146
:103EF0002068884235D0BF4978312068884230D068
:103F0000BC499031206888422BD0BA49A83120683A
:103F1000884226D0B8492068884222D0B649183154
:103F2000206888421DD0B44930312068884218D0BA
:103F3000B14948312068884213D0AF4960312068C8
:103F400088420ED0AC4978312068884209D0AA490D
:103F500090312068884204D0A749A831206888425F
:103F600004D12068006800F0040003E020680068C5
:103F700000F0080080B12068006820F0040021688B
:103F8000086094F85C0000F01F0108208840B060D1
:103F9000606D40F00100606594F85C0000F01F0166
:103FA000012088403840E8B392492068884200E008
:103FB000B7E24BD08F4918312068884246D08D49EE
:103FC00030312068884241D08A494831206888428F
:103FD0003CD0884960312068884237D085497831A3
:103FE0002068884232D083499031206888422DD0A1
:103FF0008049A8312068884228D07F4920688842BB
:1040000024D07D491831206888421FD07A49303148
:10401000206888421AD0784948312068884215D0F3
:10402000754900E026E06031206888420ED0724970
:1040300078312068884209D06F49903120688842E1
:1040400004D06D49A8312068884204D120684069B5
:1040500000F0800002E020680068002050B194F871
:104060005C0000F01F0101208840B060606D40F0EE
:104070000200606594F85C0000F01F010420884095
:104080003840E8B35B49206888424BD05949183121
:104090002068884246D0574930312068884241D054
:1040A00054494831206888423CD0524960312068E8
:1040B000884237D04F4978312068884232D04D4904
:1040C0009031206888422DD04A49A8312068884222
:1040D00028D049492068884224D0474918312068AF
:1040E00088421FD044493031206888421AD0424962
:1040F00048312068884215D03F496031206800E08F
:1041000024E088420ED03C4978312068884209D0AA
:10411000394990312068884204D03749A831206855
:10412000884204D12068006800F0020002E02068A4
:104130000068002050B194F85C0000F01F010420DA
:104140008840B060606D40F00400606594F85C00E9
:1041500000F01F01102088403840E8B3254920684E
:10416000884251D023491831206888424CD02149D7
:1041700030312068884247D01E4948312068884243
:1041800042D01C496031206888423DD019497831BD
:104190002068884238D0174990312068884233D04F
:1041A0001449A831206888422ED0134920688842DB
:1041B0002AD0114918312068884225D00E49303163
:1041C0002068884220D00C494831206888421BD0A2
:1041D00009496031206800E04DE0884214D006496A
:1041E0007831206888420FD003499031206805E07B
:1041F000240000241000024010040240884203D032
:10420000FE492068884204D12068006800F0080058
:1042100003E02068006800F0040060B394F85C00DC
:1042200000F01F0110208840B0602068006800F492
:10423000802080B12068006800F4002028B9206C3C
:10424000C8B12046216C884715E0A06C98B1204683
:10425000A16C88470FE02068006800F4807028B9DE
:104260002068006820F0080021680860206C10B108
:104270002046216C884794F85C0000F01F01202044
:104280008840384000287DD0DD492068884249D0E8
:10429000DB4918312068884244D0D9493031206840
:1042A00088423FD0D6494831206888423AD0D44924
:1042B00060312068884235D0D14978312068884201
:1042C00030D0CF499031206888422BD0CC49A831DA
:1042D0002068884226D0C949A8392068884221D060
:1042E000C6499039206888421CD0C4497839206872
:1042F000884217D0C14960392068884212D0BF492E
:104300004839206888420DD0BC493039206888423D
:1043100008D0BA4918392068884203D0B7492068C4
:10432000884204D12068006800F0100003E0206893
:10433000006800F0020028B394F85C0000F01F0150
:1043400020208840B06094F8350004282DD12068E2
:10435000006820F01600216808602068406920F09D
:10436000800021684861206C08B9A06C28B12068E1
:10437000006820F008002168086094F85C0000F0F4
:104380001F0100E03FE03F208840B060012084F83A
:10439000350000BF002084F8340000BF206D10B14C
:1043A0002046216D8847BDE8F88F2068006800F43A
:1043B000802080B12068006800F4002028B9606C7B
:1043C00008B32046616C88471DE0E06BD8B12046F9
:1043D000E16B884717E02068006800F4807068B9D6
:1043E0002068006820F0100021680860012084F82F
:1043F000350000BF002084F8340000BFE06B10B12E
:104400002046E16B8847606D00287AD0606D00F02F
:104410000100E8B3042084F8350079492068884217
:104420004BD0774918312068884246D074493031E2
:104430002068884241D072494831206888423CD087
:104440006F4960312068884237D06D4978312068E3
:10445000884232D06A499031206888422DD068491C
:10446000A8312068884228D06449A8392068884249
:1044700023D062499039206888421ED05F4978393C
:104480002068884219D05D4960392068884200E080
:1044900040E012D059494839206888420DD0574928
:1044A00030392068884208D0544918392068884239
:1044B00003D052492068884206D12068006820F065
:1044C00001002168086005E02068006820F0010014
:1044D0002168086000BF0098401C0090504500D93A
:1044E00005E02068006800F001000028F3D100BF5B
:1044F0002068006800F0010020B1032084F8350036
:1045000003E00DE0012084F8350000BF002084F8AE
:10451000340000BFE06C002802D02046E16C8847E0
:10452000D9E138492068884222D0364914312068C0
:1045300088421DD0334928312068884218D031493B
:104540003C312068884213D02E495031206888427F
:104550000ED02C4964312068884209D0294978312D
:104560002068884204D027498C312068884201D1D4
:10457000012000E000200028D2D02068056894F8CF
:104580005C0000F01F010420884000EA0900D8B355
:1045900005F00400C0B394F85C0000F01F01042093
:1045A0008840C8F8040005F4004080B105F480306C
:1045B00030B9A06C0028B3D02046A16C88478AE1AE
:1045C000206C0028ACD02046216C884783E105F0A0
:1045D0002000E8BB0A492068884253D008491831B6
:1045E000206888424ED0064930312068884249D040
:1045F000034948312068884244D006E0B8040240AC
:1046000010000240085402584FE0B449603120685D
:10461000884237D0B14978312068884232D0AF49DA
:104620009031206888422DD0AC49A831206888425A
:1046300028D0AB492068884224D0A9491831206885
:1046400088421FD0A6493031206888421AD000E045
:1046500025E0A34948312068884213D0A049603141
:10466000206888420ED09E4978312068884209D05F
:104670009B4990312068884204D09949A83120682C
:10468000884206D12068006820F008002168086090
:1046900005E02068006820F0040021680860206CB4
:1046A00010B32046216C884715E194F85C0000F0B7
:1046B0001F010220884000EA0900E8B305F002006B
:1046C000D0B394F85C0000F01F0102208840C8F8C5
:1046D000040005F4004070B105F4803028B9606C26
:1046E00010B12046616C8847F5E0E06BF0B32046DE
:1046F000E16B8847EFE005F02000C0BB77492068F8
:1047000088424ED0754918312068884249D0734993
:1047100030312068884244D070494831206888424E
:104720003FD06E496031206888423AD06B49783179
:104730002068884235D000E04EE06849903120681A
:1047400088422ED06549A8312068884229D0644922
:104750002068884225D0624918312068884220D0DC
:104760005F493031206888421BD001E06EE02DE0C7
:104770005B4948312068884213D05949603120682C
:1047800088420ED0564978312068884209D0544971
:1047900090312068884204D05149A831206888426D
:1047A00006D12068006820F014002168086005E048
:1047B0002068006820F00A0021680860012084F861
:1047C000350000BF002084F8340000BFE06BE8B380
:1047D0002046E16B88477EE094F85C0000F01F0102
:1047E0000820884000EA090080B305F0080068B39B
:1047F0003A49206888424BD03849183120688842AD
:1048000046D0364930312068884241D0334948315A
:10481000206888423CD0314960312068884237D0D6
:104820002E4978312068884232D02C499031206856
:1048300088422DD02949A8312068884228D02849AB
:104840002068884224D02649183100E043E02068DF
:1048500088421DD0224930312068884218D0204932
:1048600048312068884213D01D4960312068884251
:104870000ED01B4978312068884209D01849903100
:104880002068884204D01649A8312068884206D1A1
:104890002068006820F01C002168086005E020689E
:1048A000006820F00E002168086094F85C0000F0B9
:1048B0001F0101208840C8F804000120606584F8C9
:1048C000350000BF002084F8340000BFE06C10B158
:1048D0002046E16C884700BF65E5000010000240FB
:1048E000100402402DE9F041044601F05FFC8046CF
:1048F00014B90120BDE8F081FE492068884249D002
:10490000FC4918312068884244D0FA493031206887
:1049100088423FD0F7494831206888423AD0F5496B
:1049200060312068884235D0F24978312068884269
:1049300030D0F0499031206888422BD0ED49A83121
:104940002068884226D0EC492068884222D0EA4973
:104950001831206888421DD0E749303120688842EC
:1049600018D0E54948312068884213D0E2496031C7
:10497000206888420ED0E04978312068884209D00A
:10498000DD4990312068884204D0DB49A831206895
:10499000884201D1012000E00020002873D0606A25
:1049A00000B100BF022084F8350000BF002084F869
:1049B000340000BFCF492068884249D0CD49183122
:1049C0002068884244D0CB493031206888423FD0AB
:1049D000C8494831206888423AD0C64960312068C9
:1049E000884235D0C34978312068884230D0C149E7
:1049F0009031206888422BD0BE49A8312068884277
:104A000026D0BD492068884222D0BB491831206891
:104A100088421DD0B84930312068884218D0B64944
:104A200048312068884213D0B349603120688842F9
:104A30000ED0B14978312068884209D0AE49903112
:104A40002068884204D0AC49A8312068884206D149
:104A50002068006820F001002168086005E02068F7
:104A6000006820F00100216808600DE001F09EFB65
:104A7000A0EB0800052807D920206065032084F8F2
:104A80003500012036E769E02068006800F0010089
:104A90000028EBD12068056898480540D4E9020158
:104AA00008432169084361690843A1690843E16932
:104AB0000843216A08430543606A042803D1D4E906
:104AC0000B01084305436068292802D360682E283B
:104AD00017D960683F2802D36068422811D96068FE
:104AE000472802D3606848280BD960684F2802D352
:104AF0006068522805D96068742804D360687728F4
:104B000001D8012000E0002008B145F4801520689C
:104B100005602068456925F00705606A0543606AFD
:104B200004280DD1A06A0543E06A48B12046FDF78C
:104B30001FF828B140206065012084F83500D9E6CF
:104B4000206845612046FCF7EFFE064694F85C00BD
:104B500000F01F013F208840B0609EE06849206857
:104B6000884222D066491431206888421DD06449A9
:104B700028312068884218D061493C312068884239
:104B800013D05F495031206888420ED05C496431AF
:104B90002068884209D05A4978312068884204D078
:104BA00057498C312068884201D1012000E0002063
:104BB000E0B353492068884222D05149143120681B
:104BC00088421DD04E4928312068884218D04C496F
:104BD0003C312068884213D04949503120688842CE
:104BE0000ED0474964312068884209D04449783161
:104BF0002068884204D042498C312068884201D123
:104C0000012000E0002000B100BF022084F8350040
:104C100000BF002084F8340000BF206805683948D0
:104C20000540A068402802D1102106E02EE0A068CF
:104C3000802801D1C10100E00021E06841EAD001F3
:104C4000206941EAD001606941EAD001A06941EAE6
:104C5000D001E06941EAD001206A41EA1010054321
:104C60002068056026492068401A1421B0FBF1F045
:104C70008000E0652046FCF757FE074694F85C008C
:104C800000F01F0101208840786006E04020606548
:104C9000032084F8350001202CE61649206888425C
:104CA0007AD0144918312068884275D011493031C2
:104CB0002068884270D00F494831206888426BD004
:104CC0000C4960312068884266D00A4978312068F2
:104CD000884261D007499031206888425CD00549FC
:104CE000A8312068884257D003492068884253D0B1
:104CF000014909E010000240100402403F8010FE0C
:104D0000085402580F00FEFF18312068884243D033
:104D10003749206888423FD0354918312068884299
:104D20003AD0334930312068884235D03049483153
:104D30002068884230D02E496031206888422BD0CC
:104D40002B4978312068884226D02A492068884239
:104D500022D028491431206888421DD025492831A5
:104D60002068884218D023493C312068884213D0FB
:104D700020495031206888420ED01E496431206895
:104D8000884209D01B4978312068884204D01949EB
:104D90008C312068884201D1012000E0002000B35E
:104DA0002046FCF737FEA068802801D10020606013
:104DB0002079216E0860D4E919104860606860B1FC
:104DC0006068082809D82046FCF786FE0020E16EBE
:104DD0000860D4E91C10486003E00020E06620670A
:104DE000606700206065012084F83500002081E5BF
:104DF00040040240085402582DE9F04104460D4693
:104E000016461F464FF0000814B90120BDE8F08196
:104E100000BF94F83400012801D10220F6E70120F8
:104E200084F8340000BF94F8350001287ED10220B8
:104E300084F8350000206065E4492068884249D044
:104E4000E24918312068884244D0E0493031206876
:104E500088423FD0DD494831206888423AD0DB495A
:104E600060312068884235D0D8497831206888423E
:104E700030D0D6499031206888422BD0D349A83110
:104E80002068884226D0D2492068884222D0D04962
:104E90001831206888421DD0CD49303120688842C1
:104EA00018D0CB4948312068884213D0C8496031B6
:104EB000206888420ED0C64978312068884209D0DF
:104EC000C34990312068884204D0C149A831206884
:104ED000884206D12068006820F00100216808603F
:104EE00005E02068006820F00100216808603B466A
:104EF000324629462046FCF793FEB4492068884292
:104F00004BD0B24918312068884246D0AF49303181
:104F10002068884241D0AD494831206888423CD061
:104F2000AA4960312068884237D000E042E1A749B1
:104F300078312068884230D0A44990312068884276
:104F40002BD0A249A8312068884226D0A0492068E9
:104F5000884222D09E491831206888421DD09C4941
:104F600030312068884218D09949483120688842F9
:104F700013D097496031206888420ED09449783127
:104F80002068884209D0924990312068884204D034
:104F90008F49A8312068884201D1012000E000201B
:104FA00080B12068006820F01E0040F016002168E3
:104FB0000860206CB0B12068006840F008002168EB
:104FC00008600FE02068006820F00E0040F00A0042
:104FD00021680860206C28B12068006840F0040057
:104FE0002168086079492068884270D07749183173
:104FF000206888426BD0754930312068884266D07D
:10500000724948312068884261D070496031206817
:1050100088425CD06D4978312068884257D06B490E
:1050200090312068884252D06849A831206888426F
:105030004DD067492068884249D0654918312068B9
:10504000884244D062493031206888423FD060496C
:105050004831206888423AD05D49603120688842F2
:1050600035D05B4978312068884230D0584990313A
:10507000206888422BD05649A8312068884226D023
:1050800054492068884222D052491431206888420D
:105090001DD0504928312068884218D04D493C31F4
:1050A0002068884213D04B495031206888420ED086
:1050B000484964312068884209D0464978312068DF
:1050C000884204D043498C312068884201D10120B4
:1050D00000E0002090B1206E006800F4803028B11C
:1050E000206E006840F48070216E0860E06E28B188
:1050F000E06E006840F48070E16E0860334920681B
:10510000884249D0314918312068884244D02F491B
:105110003031206888423FD02C494831206888428D
:105120003AD02A4960312068884235D02749783101
:105130002068884230D025499031206888422BD0A1
:105140002249A8312068884226D021492068884217
:1051500022D01F491831206888421DD01C493031A7
:105160002068884218D01A4948312068884213D0F4
:1051700017496031206888420ED01549783120687F
:10518000884209D0124990312068884204D01049E1
:10519000A8312068884206D12068006840F00100EC
:1051A0002168086010E02068006840F00100216874
:1051B000086009E04FF40060606500BF002084F8DB
:1051C000340000BF4FF0010840461FE610000240C7
:1051D000100402400854025870B5044600F0E6FF7F
:1051E00006462546681C10B104480078054400BFF7
:1051F00000F0DCFF801BA842FAD370BD2000002421
:1052000030B5034693F89840012C01D0022C3ED1D2
:105210001868806D084030B91868C06D40F0010012
:105220001D68E8650EE01868806D0840884206D168
:105230001868C06D40F002001D68E86502E00320B8
:105240001D68E86501F4007030B11868D0F8E0001E
:1052500010431D68C5F8E00001F4806030B11868A3
:10526000D0F8E40010431D68C5F8E40000BF1868DA
:10527000406D0B4D0D4028431D6868650948006866
:1052800040EA9170074D286000BF002030BDD3F880
:105290009C0040F00200C3F89C000120F6E70000EB
:1052A000FFFFCF3F14A800402DE9F04104460E4611
:1052B0001746706800B900E000BF94F89800022813
:1052C00032D12068D0F8C00000F07C5040B9D4F84A
:1052D0009C0040F02000C4F89C000120BDE8F08153
:1052E0002068D0F8C40000F4001038B1D4F89C0055
:1052F00040F40070C4F89C000120EFE72068D0F86B
:10530000C400C0F304452B463A4631462046FDF71B
:105310001DF90120A8402168C1F8D0000120A84053
:10532000C4F894000020D9E7D4F89C0040F00800AD
:10533000C4F89C000120D1E77047F0B5024692F80E
:105340009860012E01D0022E43D1C868072800D1F1
:1053500000BF086818BBC868072800D000BFC8682D
:1053600007280BD1088A4FF0605747EA0040CF6901
:1053700040EA07208F6940EA07040AE0087A8007BC
:105380000F7B40EAC7600F8A40EA07404F6940EA56
:105390000704D76E486807EB80031C6017E0C868F5
:1053A000072800D000BF0F7B086940EA4774C8682F
:1053B000072801D18D6903E00F7A486940EA8775B3
:1053C000176F486807EBC0031C601B1D1D600020A1
:1053D000F0BDD2F89C0040F00200C2F89C00012011
:1053E000F6E770B50446049D94F8980001280AD1A8
:1053F000080140EA820040EA430028432668C6F8D4
:105400008000002070BDD4F89C0040F00400C4F877
:105410009C000120F6E77047704700002DE9F0433B
:1054200004460D469C46002394F89880B8F1020F7C
:1054300074D1402D38D12068D0F8A00000F4FE00CF
:1054400040B9D4F89C0040F02000C4F89C00012032
:10545000BDE8F0832068D0F8A40000F07F0038B9E0
:10546000D4F89C0040F48070C4F89C000120EFE761
:105470002068D0F8A400C0F3006040B12068D0F8E4
:10548000A0004FF00109B9EBD07F00D101232068C3
:10549000D0F8A400C0F305200344606C5843D4F84E
:1054A000749009EB80014BE0412D38D12068D0F891
:1054B000B00000F4FE0038B9D4F89C0040F02000A1
:1054C000C4F89C000120C3E72068D0F8B40000F0C5
:1054D0007F0038B9D4F89C0040F48070C4F89C0078
:1054E0000120B5E72068D0F8B400C0F3006040B1F7
:1054F0002068D0F8B0004FF00109B9EBD07F00D19F
:1055000001232068D0F8B400C0F305200344E06C08
:105510005843D4F8789009EB800111E06DE0206DDC
:10552000A84207D8D4F89C0040F02000C4F89C00A2
:1055300001208DE7606D6843D4F87C9009EB800111
:10554000086800F080405060506820B90868C0F3D7
:105550008A40106003E0086820F06040106008682E
:1055600000F000509060086800F000401061091DD4
:10557000088880B2D0610868C0F30340D060086832
:1055800000F480105061086800F400109061086811
:10559000C0F3066010620868C00F5062091D0F4614
:1055A000002603E0B85D0CF80600761CDFF85C907E
:1055B000D06819F80000B042F4D8402D03D120681B
:1055C000C0F8A83017E0412D03D12068C0F8B830EA
:1055D00011E0202D06D20120A840D4F80090C9F88F
:1055E000980008E005F01F09012000FA09F0D4F83E
:1055F0000090C9F89C0000202AE7D4F89C0040F0F5
:105600000800C4F89C00012022E70000E4FA00082A
:10561000704700002DE9F04F8DB00446EF48006858
:105620008707EE48001D006807EA80772068006D54
:1056300000F470482068406D00EA08082068006D9A
:1056400000F00F092068406D00EA09092068006D2C
:1056500000F0F00A2068406D00EA0A0A2068006D38
:1056600000F0715B2068406D00EA0B0B2068006D54
:1056700000F060700C902068406D0C9908400C9010
:105680002068456D2068066DC5F3002070B1C6F333
:10569000002058B100BF4FF48070216808650020D9
:1056A000CE49086000BF2046FFF7B2FFC5F3802057
:1056B000C8B1C6F38020B0B12068D0F8DC000A90F1
:1056C0002068D0F8E4000A9908400A9000BF4FF41F
:1056D0008060216808650020C049086000BF20463E
:1056E0000A9900F061FC67B100BFBD4838402168ED
:1056F0000865B80FB949086000BF39462046FFF772
:105700001BFEB8F1000F0ED000BFB54808EA00003C
:10571000216808654FEA9870B049086000BF4146AB
:10572000204600F043FCB9F1000F0ED000BFAC489A
:1057300009EA0000216808654FEA9970A7490860E6
:1057400000BF4946204600F09BFBBAF1000F0ED087
:1057500000BFA3480AEA0000216808654FEA9A7072
:105760009E49086000BF5146204600F0DFFBC5F3AC
:10577000C02070B1C6F3C02058B100BF4FF4006024
:105780002168086500209549086000BF204600F0A8
:105790000EFCC5F34020C8B1C6F34020B0B120686C
:1057A000D0F8D8000B902068D0F8E0000B990840A2
:1057B0000B9000BF4FF400702168086500208749F6
:1057C000086000BF20460B9900F0EFFBC5F3C04016
:1057D00070B1C6F3C04058B100BF4FF4002021683B
:1057E000086500207D49086000BF204600F046FBA8
:1057F000C5F3004070B1C6F3004058B100BF4FF48C
:1058000080302168086500207449086000BF204688
:1058100000F0C9FBC5F3804070B1C6F3804058B1B9
:1058200000BF4FF480202168086500206B490860A4
:1058300000BF204600F0B6FBC5F3404088B1C6F378
:10584000404070B100BF4FF400302168086500206F
:105850006249086000BFD4F89C0040F08000C4F8A2
:105860009C000C9870B100BF5D490C9808402168FD
:1058700008650C98800F5949086000BF20460C99B4
:10588000FFF7CAFDBBF1000F10D000BF54480BEA70
:105890000000216808654FEA9B705049086000BF0E
:1058A000D4F89C0040EA0B00C4F89C004D492068E5
:1058B00088427DD16068806800F00300002877D0BE
:1058C0006068006A00F00F0009906068406A0999FA
:1058D000084009906068006A00F030000890606835
:1058E000406A0899084008906068006A00F4C07037
:1058F00007906068406A0799084007906068006AEE
:1059000000F4FC4006906068406A069908400690E2
:105910006068006A00F4F02005906068406A0599AC
:10592000084005906068406A02906068006A0190D3
:10593000099830B10998616808622046099900F019
:105940002EFB089830B108986168086220460899D3
:1059500000F027FB0298C0F38010A0B10198C0F3BB
:10596000801080B16068C06B000C04906068C06BF0
:1059700000F03F0003904020616808622046DDE9A6
:10598000032100F00DFB079830B1079861680862A9
:105990002046079900F002FB069840B1069861681E
:1059A0000862D4F89C0006990843C4F89C0000E003
:1059B0000AE0059840B1059861680862D4F89C0037
:1059C00005990843C4F89C00D4F89C0010B1204607
:1059D000FFF721FD0DB0BDE8F08F000010A80040DA
:1059E000FFFFCF3F00A0004070B594B004464C22AA
:1059F000B34901A8FAF719FD14B9012014B070BD1C
:105A0000B0492068884203D1206800F5807060604A
:105A1000A068B0F5407F00D100BF206C00B100BF8E
:105A2000A06C00B100BF206D00B100BF206E00B1BE
:105A300000BFD4E91710084400B100BF94F89800E3
:105A400028B9002084F89900204600F03DF920682C
:105A5000806920F010002168886100F0A7FB0546EE
:105A60000EE000F0A3FB401B0A2809D998346068B7
:105A700040F001006060032004F898090120BDE7B0
:105A80002068806900F008000828EAD02068806952
:105A900040F001002168886100F088FB05460EE0B7
:105AA00000F084FB401B0A2809D99834606840F054
:105AB00001006060032004F8980901209EE7206837
:105AC000806900F001000028EAD02068806940F079
:105AD000020021688861207C012806D12068806945
